{
  "contractName": "Pass",
  "abi": [
    {
      "inputs": [],
      "payable": false,
      "stateMutability": "nonpayable",
      "type": "constructor"
    },
    {
      "anonymous": false,
      "inputs": [
        {
          "indexed": false,
          "name": "_sender",
          "type": "address"
        },
        {
          "indexed": false,
          "name": "_success",
          "type": "bool"
        }
      ],
      "name": "BookUpdated",
      "type": "event"
    },
    {
      "constant": false,
      "inputs": [
        {
          "name": "platform",
          "type": "string"
        },
        {
          "name": "account",
          "type": "string"
        },
        {
          "name": "password",
          "type": "string"
        }
      ],
      "name": "addPassword",
      "outputs": [],
      "payable": true,
      "stateMutability": "payable",
      "type": "function"
    },
    {
      "constant": true,
      "inputs": [],
      "name": "getBookLength",
      "outputs": [
        {
          "name": "",
          "type": "uint256"
        }
      ],
      "payable": false,
      "stateMutability": "view",
      "type": "function"
    },
    {
      "constant": true,
      "inputs": [
        {
          "name": "_index",
          "type": "uint256"
        }
      ],
      "name": "getBook",
      "outputs": [
        {
          "name": "",
          "type": "string"
        },
        {
          "name": "",
          "type": "string"
        },
        {
          "name": "",
          "type": "string"
        }
      ],
      "payable": false,
      "stateMutability": "view",
      "type": "function"
    },
    {
      "constant": false,
      "inputs": [
        {
          "name": "_index",
          "type": "uint256"
        },
        {
          "name": "platform",
          "type": "string"
        },
        {
          "name": "account",
          "type": "string"
        },
        {
          "name": "password",
          "type": "string"
        }
      ],
      "name": "updatePassword",
      "outputs": [],
      "payable": true,
      "stateMutability": "payable",
      "type": "function"
    },
    {
      "constant": false,
      "inputs": [
        {
          "name": "p",
          "type": "uint256"
        }
      ],
      "name": "updatePrice",
      "outputs": [],
      "payable": false,
      "stateMutability": "nonpayable",
      "type": "function"
    },
    {
      "constant": true,
      "inputs": [],
      "name": "getPrice",
      "outputs": [
        {
          "name": "",
          "type": "uint256"
        }
      ],
      "payable": false,
      "stateMutability": "view",
      "type": "function"
    }
  ],
  "bytecode": "0x6060604052341561000f57600080fd5b336000806101000a81548173ffffffffffffffffffffffffffffffffffffffff021916908373ffffffffffffffffffffffffffffffffffffffff16021790555066038d7ea4c68000600181905550610f518061006c6000396000f300606060405260043610610078576000357c0100000000000000000000000000000000000000000000000000000000900463ffffffff1680636c5376c91461007d5780638d6cc56d1461015557806398d5fdca14610178578063d2051f8e146101a1578063e0ff5b8b14610282578063ffee7c97146103f6575b600080fd5b610153600480803590602001908201803590602001908080601f0160208091040260200160405190810160405280939291908181526020018383808284378201915050505050509190803590602001908201803590602001908080601f0160208091040260200160405190810160405280939291908181526020018383808284378201915050505050509190803590602001908201803590602001908080601f0160208091040260200160405190810160405280939291908181526020018383808284378201915050505050509190505061041f565b005b341561016057600080fd5b61017660048080359060200190919050506106e3565b005b341561018357600080fd5b61018b610748565b6040518082815260200191505060405180910390f35b610280600480803590602001909190803590602001908201803590602001908080601f0160208091040260200160405190810160405280939291908181526020018383808284378201915050505050509190803590602001908201803590602001908080601f0160208091040260200160405190810160405280939291908181526020018383808284378201915050505050509190803590602001908201803590602001908080601f01602080910402602001604051908101604052809392919081815260200183838082843782019150505050505091905050610752565b005b341561028d57600080fd5b6102a360048080359060200190919050506109ef565b60405180806020018060200180602001848103845287818151815260200191508051906020019080838360005b838110156102eb5780820151818401526020810190506102d0565b50505050905090810190601f1680156103185780820380516001836020036101000a031916815260200191505b50848103835286818151815260200191508051906020019080838360005b83811015610351578082015181840152602081019050610336565b50505050905090810190601f16801561037e5780820380516001836020036101000a031916815260200191505b50848103825285818151815260200191508051906020019080838360005b838110156103b757808201518184015260208101905061039c565b50505050905090810190601f1680156103e45780820380516001836020036101000a031916815260200191505b50965050505050505060405180910390f35b341561040157600080fd5b610409610d53565b6040518082815260200191505060405180910390f35b61042883610d9a565b61043182610d9a565b61043a81610d9a565b600154341015151561044b57600080fd5b6000809054906101000a900473ffffffffffffffffffffffffffffffffffffffff1673ffffffffffffffffffffffffffffffffffffffff166108fc349081150290604051600060405180830381858888f1935050505015156104ac57600080fd5b6001600360003373ffffffffffffffffffffffffffffffffffffffff1673ffffffffffffffffffffffffffffffffffffffff16815260200190815260200160002060008282540192505081905550600260003373ffffffffffffffffffffffffffffffffffffffff1673ffffffffffffffffffffffffffffffffffffffff168152602001908152602001600020600001805480600101828161054e9190610db8565b916000526020600020900160008590919091509080519060200190610574929190610de4565b5050600260003373ffffffffffffffffffffffffffffffffffffffff1673ffffffffffffffffffffffffffffffffffffffff16815260200190815260200160002060010180548060010182816105ca9190610db8565b9160005260206000209001600084909190915090805190602001906105f0929190610de4565b5050600260003373ffffffffffffffffffffffffffffffffffffffff1673ffffffffffffffffffffffffffffffffffffffff16815260200190815260200160002060020180548060010182816106469190610db8565b91600052602060002090016000839091909150908051906020019061066c929190610de4565b50507f85632e7eb1d8c810df8dd8788467303e9ce000f017f76ecb8da81a4df7ed5f09336001604051808373ffffffffffffffffffffffffffffffffffffffff1673ffffffffffffffffffffffffffffffffffffffff168152602001821515151581526020019250505060405180910390a1505050565b6000809054906101000a900473ffffffffffffffffffffffffffffffffffffffff1673ffffffffffffffffffffffffffffffffffffffff163373ffffffffffffffffffffffffffffffffffffffff1614151561073e57600080fd5b8060018190555050565b6000600154905090565b61075b83610d9a565b61076482610d9a565b61076d81610d9a565b600360003373ffffffffffffffffffffffffffffffffffffffff1673ffffffffffffffffffffffffffffffffffffffff16815260200190815260200160002054841015156107ba57600080fd5b60015434101515156107cb57600080fd5b6000809054906101000a900473ffffffffffffffffffffffffffffffffffffffff1673ffffffffffffffffffffffffffffffffffffffff166108fc349081150290604051600060405180830381858888f19350505050151561082c57600080fd5b82600260003373ffffffffffffffffffffffffffffffffffffffff1673ffffffffffffffffffffffffffffffffffffffff1681526020019081526020016000206000018581548110151561087c57fe5b9060005260206000209001908051906020019061089a929190610de4565b5081600260003373ffffffffffffffffffffffffffffffffffffffff1673ffffffffffffffffffffffffffffffffffffffff168152602001908152602001600020600101858154811015156108eb57fe5b90600052602060002090019080519060200190610909929190610de4565b5080600260003373ffffffffffffffffffffffffffffffffffffffff1673ffffffffffffffffffffffffffffffffffffffff1681526020019081526020016000206002018581548110151561095a57fe5b90600052602060002090019080519060200190610978929190610de4565b507f85632e7eb1d8c810df8dd8788467303e9ce000f017f76ecb8da81a4df7ed5f09336001604051808373ffffffffffffffffffffffffffffffffffffffff1673ffffffffffffffffffffffffffffffffffffffff168152602001821515151581526020019250505060405180910390a150505050565b6109f7610e64565b6109ff610e64565b610a07610e64565b60008410151515610a1757600080fd5b600360003373ffffffffffffffffffffffffffffffffffffffff1673ffffffffffffffffffffffffffffffffffffffff1681526020019081526020016000205484101515610a6457600080fd5b600260003373ffffffffffffffffffffffffffffffffffffffff1673ffffffffffffffffffffffffffffffffffffffff16815260200190815260200160002060000184815481101515610ab357fe5b9060005260206000209001600260003373ffffffffffffffffffffffffffffffffffffffff1673ffffffffffffffffffffffffffffffffffffffff16815260200190815260200160002060010185815481101515610b0d57fe5b9060005260206000209001600260003373ffffffffffffffffffffffffffffffffffffffff1673ffffffffffffffffffffffffffffffffffffffff16815260200190815260200160002060020186815481101515610b6757fe5b9060005260206000209001828054600181600116156101000203166002900480601f016020809104026020016040519081016040528092919081815260200182805460018160011615610100020316600290048015610c075780601f10610bdc57610100808354040283529160200191610c07565b820191906000526020600020905b815481529060010190602001808311610bea57829003601f168201915b50505050509250818054600181600116156101000203166002900480601f016020809104026020016040519081016040528092919081815260200182805460018160011615610100020316600290048015610ca35780601f10610c7857610100808354040283529160200191610ca3565b820191906000526020600020905b815481529060010190602001808311610c8657829003601f168201915b50505050509150808054600181600116156101000203166002900480601f016020809104026020016040519081016040528092919081815260200182805460018160011615610100020316600290048015610d3f5780601f10610d1457610100808354040283529160200191610d3f565b820191906000526020600020905b815481529060010190602001808311610d2257829003601f168201915b505050505090509250925092509193909250565b6000600360003373ffffffffffffffffffffffffffffffffffffffff1673ffffffffffffffffffffffffffffffffffffffff16815260200190815260200160002054905090565b610da2610e78565b819050606481511115610db457600080fd5b5050565b815481835581811511610ddf57818360005260206000209182019101610dde9190610e8c565b5b505050565b828054600181600116156101000203166002900490600052602060002090601f016020900481019282601f10610e2557805160ff1916838001178555610e53565b82800160010185558215610e53579182015b82811115610e52578251825591602001919060010190610e37565b5b509050610e609190610eb8565b5090565b602060405190810160405280600081525090565b602060405190810160405280600081525090565b610eb591905b80821115610eb15760008181610ea89190610edd565b50600101610e92565b5090565b90565b610eda91905b80821115610ed6576000816000905550600101610ebe565b5090565b90565b50805460018160011615610100020316600290046000825580601f10610f035750610f22565b601f016020900490600052602060002090810190610f219190610eb8565b5b505600a165627a7a72305820cc8d4e549d5b459f4b4d669fabfb80ff2f2eb48707e6f1cf75754361b640236c0029",
  "source": "pragma solidity ^0.4.17;\r\n\r\ncontract Pass {\r\n    address private admin;\r\n    uint private price;\r\n    function Pass() public{\r\n        admin = msg.sender;\r\n        price = 10 ** 15;\r\n    }\r\n\r\n    struct PasswordBook{\r\n        string [] platforms;        /// 平台\r\n        string [] accounts;         /// 密码描述列表\r\n        string [] passwords;        /// 密码列表\r\n    }\r\n\r\n    mapping (address => PasswordBook) private userbook;   /// 用户地址 映射密码本\r\n    mapping (address => uint) private registerUsers;     /// 拥有密码本的用户地址\r\n\r\n    event BookUpdated(address _sender, bool _success);\r\n    /// 增加密码\r\n    function addPassword(string platform, string account, string password) public payable {\r\n        checkLength(platform);\r\n        checkLength(account);\r\n        checkLength(password);\r\n        require(msg.value >= price);\r\n        admin.transfer(msg.value);\r\n        registerUsers[msg.sender] += 1;\r\n        userbook[msg.sender].platforms.push(platform);\r\n        userbook[msg.sender].accounts.push(account);\r\n        userbook[msg.sender].passwords.push(password);\r\n        BookUpdated(msg.sender, true);\r\n    }\r\n\r\n    function getBookLength() public view returns (uint){\r\n        return registerUsers[msg.sender];\r\n    }\r\n\r\n    function getBook(uint _index) public view returns (string, string, string){\r\n        require(_index>=0);\r\n        require(_index < registerUsers[msg.sender]);\r\n        return (userbook[msg.sender].platforms[_index], userbook[msg.sender].accounts[_index], userbook[msg.sender].passwords[_index]);\r\n    }\r\n\r\n    function updatePassword(uint _index, string platform, string account, string password) public payable {\r\n        checkLength(platform);\r\n        checkLength(account);\r\n        checkLength(password);\r\n        if(_index >= registerUsers[msg.sender]) revert();\r\n        require(msg.value >= price);\r\n        admin.transfer(msg.value);\r\n        userbook[msg.sender].platforms[_index] = platform;\r\n        userbook[msg.sender].accounts[_index] = account;\r\n        userbook[msg.sender].passwords[_index] = password;\r\n        BookUpdated(msg.sender, true);\r\n    }\r\n\r\n    function updatePrice(uint p) public{\r\n        require(msg.sender == admin);\r\n        price = p;\r\n    }\r\n\r\n    function getPrice() public view returns (uint){\r\n        return price;\r\n    }\r\n\r\n    function checkLength(string str) private pure {\r\n        bytes memory strBytes = bytes(str);\r\n        if (strBytes.length > 100)\r\n            revert();\r\n    }\r\n}\r\n",
  "sourcePath": "/mnt/f/passwordbook/contracts/Pass.sol",
  "compiler": {
    "name": "solc",
    "version": "0.4.19+commit.c4cbbb05.Emscripten.clang"
  },
  "schemaVersion": "1.0.1",
  "updatedAt": "2018-03-07T03:43:41.788Z"
}