{
  "contractName": "Pass",
  "abi": [
    {
      "inputs": [],
      "payable": false,
      "stateMutability": "nonpayable",
      "type": "constructor"
    },
    {
      "anonymous": false,
      "inputs": [
        {
          "indexed": false,
          "name": "_sender",
          "type": "address"
        },
        {
          "indexed": false,
          "name": "_success",
          "type": "bool"
        }
      ],
      "name": "BookUpdated",
      "type": "event"
    },
    {
      "constant": false,
      "inputs": [
        {
          "name": "platform",
          "type": "bytes32"
        },
        {
          "name": "account",
          "type": "bytes32"
        },
        {
          "name": "password",
          "type": "bytes32"
        }
      ],
      "name": "addPassword",
      "outputs": [],
      "payable": true,
      "stateMutability": "payable",
      "type": "function"
    },
    {
      "constant": true,
      "inputs": [],
      "name": "getBookLength",
      "outputs": [
        {
          "name": "",
          "type": "uint256"
        }
      ],
      "payable": false,
      "stateMutability": "view",
      "type": "function"
    },
    {
      "constant": true,
      "inputs": [
        {
          "name": "_index",
          "type": "uint256"
        }
      ],
      "name": "getBook",
      "outputs": [
        {
          "name": "",
          "type": "bytes32"
        },
        {
          "name": "",
          "type": "bytes32"
        },
        {
          "name": "",
          "type": "bytes32"
        }
      ],
      "payable": false,
      "stateMutability": "view",
      "type": "function"
    },
    {
      "constant": false,
      "inputs": [
        {
          "name": "_index",
          "type": "uint256"
        },
        {
          "name": "platform",
          "type": "bytes32"
        },
        {
          "name": "account",
          "type": "bytes32"
        },
        {
          "name": "password",
          "type": "bytes32"
        }
      ],
      "name": "updatePassword",
      "outputs": [],
      "payable": true,
      "stateMutability": "payable",
      "type": "function"
    },
    {
      "constant": false,
      "inputs": [
        {
          "name": "p",
          "type": "uint256"
        }
      ],
      "name": "updatePrice",
      "outputs": [],
      "payable": false,
      "stateMutability": "nonpayable",
      "type": "function"
    },
    {
      "constant": true,
      "inputs": [],
      "name": "getPrice",
      "outputs": [
        {
          "name": "",
          "type": "uint256"
        }
      ],
      "payable": false,
      "stateMutability": "view",
      "type": "function"
    }
  ],
  "bytecode": "0x6060604052341561000f57600080fd5b336000806101000a81548173ffffffffffffffffffffffffffffffffffffffff021916908373ffffffffffffffffffffffffffffffffffffffff16021790555066038d7ea4c680006001819055506109df8061006c6000396000f300606060405260043610610078576000357c0100000000000000000000000000000000000000000000000000000000900463ffffffff1680635ade30f01461007d5780638d6cc56d146100b357806398d5fdca146100d6578063e0ff5b8b146100ff578063e6904cad1461015c578063ffee7c971461019b575b600080fd5b6100b160048080356000191690602001909190803560001916906020019091908035600019169060200190919050506101c4565b005b34156100be57600080fd5b6100d460048080359060200190919050506104a1565b005b34156100e157600080fd5b6100e9610506565b6040518082815260200191505060405180910390f35b341561010a57600080fd5b6101206004808035906020019091905050610510565b60405180846000191660001916815260200183600019166000191681526020018260001916600019168152602001935050505060405180910390f35b610199600480803590602001909190803560001916906020019091908035600019169060200190919080356000191690602001909190505061068f565b005b34156101a657600080fd5b6101ae61091b565b6040518082815260200191505060405180910390f35b60208060ff1611806101d9575060208060ff16115b806101e7575060208060ff16115b806101f657506000602060ff16145b8061020557506000602060ff16145b8061021457506000602060ff16145b1561021e5761049c565b600154341015151561022f57600080fd5b6000809054906101000a900473ffffffffffffffffffffffffffffffffffffffff1673ffffffffffffffffffffffffffffffffffffffff166108fc349081150290604051600060405180830381858888f19350505050151561029057600080fd5b6001600360003373ffffffffffffffffffffffffffffffffffffffff1673ffffffffffffffffffffffffffffffffffffffff16815260200190815260200160002060008282540192505081905550600260003373ffffffffffffffffffffffffffffffffffffffff1673ffffffffffffffffffffffffffffffffffffffff16815260200190815260200160002060000180548060010182816103329190610962565b916000526020600020900160008590919091509060001916905550600260003373ffffffffffffffffffffffffffffffffffffffff1673ffffffffffffffffffffffffffffffffffffffff16815260200190815260200160002060010180548060010182816103a19190610962565b916000526020600020900160008490919091509060001916905550600260003373ffffffffffffffffffffffffffffffffffffffff1673ffffffffffffffffffffffffffffffffffffffff16815260200190815260200160002060020180548060010182816104109190610962565b9160005260206000209001600083909190915090600019169055507f85632e7eb1d8c810df8dd8788467303e9ce000f017f76ecb8da81a4df7ed5f09336001604051808373ffffffffffffffffffffffffffffffffffffffff1673ffffffffffffffffffffffffffffffffffffffff168152602001821515151581526020019250505060405180910390a15b505050565b6000809054906101000a900473ffffffffffffffffffffffffffffffffffffffff1673ffffffffffffffffffffffffffffffffffffffff163373ffffffffffffffffffffffffffffffffffffffff161415156104fc57600080fd5b8060018190555050565b6000600154905090565b600080600080841015151561052457600080fd5b600360003373ffffffffffffffffffffffffffffffffffffffff1673ffffffffffffffffffffffffffffffffffffffff168152602001908152602001600020548410151561057157600080fd5b600260003373ffffffffffffffffffffffffffffffffffffffff1673ffffffffffffffffffffffffffffffffffffffff168152602001908152602001600020600001848154811015156105c057fe5b906000526020600020900154600260003373ffffffffffffffffffffffffffffffffffffffff1673ffffffffffffffffffffffffffffffffffffffff1681526020019081526020016000206001018581548110151561061b57fe5b906000526020600020900154600260003373ffffffffffffffffffffffffffffffffffffffff1673ffffffffffffffffffffffffffffffffffffffff1681526020019081526020016000206002018681548110151561067657fe5b9060005260206000209001549250925092509193909250565b60208060ff1611806106a4575060208060ff16115b806106b2575060208060ff16115b156106bc57610915565b600360003373ffffffffffffffffffffffffffffffffffffffff1673ffffffffffffffffffffffffffffffffffffffff168152602001908152602001600020548410151561070957610915565b600154341015151561071a57600080fd5b6000809054906101000a900473ffffffffffffffffffffffffffffffffffffffff1673ffffffffffffffffffffffffffffffffffffffff166108fc349081150290604051600060405180830381858888f19350505050151561077b57600080fd5b82600260003373ffffffffffffffffffffffffffffffffffffffff1673ffffffffffffffffffffffffffffffffffffffff168152602001908152602001600020600001858154811015156107cb57fe5b9060005260206000209001816000191690555081600260003373ffffffffffffffffffffffffffffffffffffffff1673ffffffffffffffffffffffffffffffffffffffff1681526020019081526020016000206001018581548110151561082e57fe5b9060005260206000209001816000191690555080600260003373ffffffffffffffffffffffffffffffffffffffff1673ffffffffffffffffffffffffffffffffffffffff1681526020019081526020016000206002018581548110151561089157fe5b906000526020600020900181600019169055507f85632e7eb1d8c810df8dd8788467303e9ce000f017f76ecb8da81a4df7ed5f09336001604051808373ffffffffffffffffffffffffffffffffffffffff1673ffffffffffffffffffffffffffffffffffffffff168152602001821515151581526020019250505060405180910390a15b50505050565b6000600360003373ffffffffffffffffffffffffffffffffffffffff1673ffffffffffffffffffffffffffffffffffffffff16815260200190815260200160002054905090565b81548183558181151161098957818360005260206000209182019101610988919061098e565b5b505050565b6109b091905b808211156109ac576000816000905550600101610994565b5090565b905600a165627a7a723058207300e060a8fbf2dda23abb7467a3a37063034f77b6bf8d4b3dfcc8bdcb6291b20029",
  "source": "pragma solidity ^0.4.17;\r\n\r\ncontract Pass {\r\n    address private admin;\r\n    uint private price;\r\n    function Pass() public{\r\n        admin = msg.sender;\r\n        price = 10 ** 15;\r\n    }\r\n\r\n    struct PasswordBook{\r\n        bytes32 [] platforms;        /// 平台\r\n        bytes32 [] accounts;         /// 密码描述列表\r\n        bytes32 [] passwords;        /// 密码列表\r\n    }\r\n\r\n    mapping (address => PasswordBook) private userbook;   /// 用户地址 映射密码本\r\n    mapping (address => uint) private registerUsers;     /// 拥有密码本的用户地址\r\n\r\n    event BookUpdated(address _sender, bool _success);\r\n    /// 增加密码\r\n    function addPassword(bytes32 platform, bytes32 account, bytes32 password) public payable {\r\n        if (platform.length > 32 || account.length > 32 || password.length > 32 || platform.length == 0 || account.length == 0 || password.length == 0) return;\r\n        require(msg.value >= price);\r\n        admin.transfer(msg.value);\r\n        registerUsers[msg.sender] += 1;\r\n        userbook[msg.sender].platforms.push(platform);\r\n        userbook[msg.sender].accounts.push(account);\r\n        userbook[msg.sender].passwords.push(password);\r\n        BookUpdated(msg.sender, true);\r\n    }\r\n\r\n    function getBookLength() public view returns (uint){\r\n        return registerUsers[msg.sender];\r\n    }\r\n\r\n    function getBook(uint _index) public view returns (bytes32, bytes32, bytes32){\r\n        require(_index>=0);\r\n        require(_index < registerUsers[msg.sender]);\r\n        return (userbook[msg.sender].platforms[_index], userbook[msg.sender].accounts[_index], userbook[msg.sender].passwords[_index]);\r\n    }\r\n\r\n    function updatePassword(uint _index, bytes32 platform, bytes32 account, bytes32 password) public payable {\r\n        if(platform.length >32 || account.length >32 || password.length >32) return;\r\n        if(_index >= registerUsers[msg.sender]) return;\r\n        require(msg.value >= price);\r\n        admin.transfer(msg.value);\r\n        userbook[msg.sender].platforms[_index] = platform;\r\n        userbook[msg.sender].accounts[_index] = account;\r\n        userbook[msg.sender].passwords[_index] = password;\r\n        BookUpdated(msg.sender, true);\r\n    }\r\n\r\n    function updatePrice(uint p) public{\r\n        require(msg.sender == admin);\r\n        price = p;\r\n    }\r\n\r\n    function getPrice() public view returns (uint){\r\n        return price;\r\n    }\r\n}\r\n",
  "sourcePath": "/mnt/f/passwordbook/contracts/Pass.sol",
  "compiler": {
    "name": "solc",
    "version": "0.4.19+commit.c4cbbb05.Emscripten.clang"
  },
  "schemaVersion": "1.0.1",
  "updatedAt": "2018-03-06T03:35:53.868Z"
}