{
  "contractName": "Pass",
  "abi": [
    {
      "constant": true,
      "inputs": [
        {
          "name": "",
          "type": "address"
        }
      ],
      "name": "earnings",
      "outputs": [
        {
          "name": "",
          "type": "uint256"
        }
      ],
      "payable": false,
      "stateMutability": "view",
      "type": "function"
    },
    {
      "constant": true,
      "inputs": [
        {
          "name": "",
          "type": "address"
        }
      ],
      "name": "registerUsers",
      "outputs": [
        {
          "name": "",
          "type": "uint256"
        }
      ],
      "payable": false,
      "stateMutability": "view",
      "type": "function"
    },
    {
      "constant": true,
      "inputs": [],
      "name": "admin",
      "outputs": [
        {
          "name": "",
          "type": "address"
        }
      ],
      "payable": false,
      "stateMutability": "view",
      "type": "function"
    },
    {
      "inputs": [],
      "payable": false,
      "stateMutability": "nonpayable",
      "type": "constructor"
    },
    {
      "anonymous": false,
      "inputs": [
        {
          "indexed": false,
          "name": "_sender",
          "type": "address"
        },
        {
          "indexed": false,
          "name": "_success",
          "type": "bool"
        }
      ],
      "name": "BookUpdated",
      "type": "event"
    },
    {
      "constant": false,
      "inputs": [
        {
          "name": "platform",
          "type": "bytes32"
        },
        {
          "name": "account",
          "type": "bytes32"
        },
        {
          "name": "password",
          "type": "bytes32"
        }
      ],
      "name": "addPassword",
      "outputs": [],
      "payable": true,
      "stateMutability": "payable",
      "type": "function"
    },
    {
      "constant": true,
      "inputs": [],
      "name": "getBookLength",
      "outputs": [
        {
          "name": "",
          "type": "uint256"
        }
      ],
      "payable": false,
      "stateMutability": "view",
      "type": "function"
    },
    {
      "constant": true,
      "inputs": [
        {
          "name": "_index",
          "type": "uint256"
        }
      ],
      "name": "getBook",
      "outputs": [
        {
          "name": "",
          "type": "bytes32"
        },
        {
          "name": "",
          "type": "bytes32"
        },
        {
          "name": "",
          "type": "bytes32"
        }
      ],
      "payable": false,
      "stateMutability": "view",
      "type": "function"
    },
    {
      "constant": false,
      "inputs": [
        {
          "name": "_index",
          "type": "uint256"
        },
        {
          "name": "platform",
          "type": "bytes32"
        },
        {
          "name": "account",
          "type": "bytes32"
        },
        {
          "name": "password",
          "type": "bytes32"
        }
      ],
      "name": "updatePassword",
      "outputs": [],
      "payable": true,
      "stateMutability": "payable",
      "type": "function"
    }
  ],
  "bytecode": "0x6060604052341561000f57600080fd5b336000806101000a81548173ffffffffffffffffffffffffffffffffffffffff021916908373ffffffffffffffffffffffffffffffffffffffff160217905550610a8c8061005e6000396000f300606060405260043610610083576000357c0100000000000000000000000000000000000000000000000000000000900463ffffffff168063543fd313146100885780635ade30f0146100d5578063d9eb0e9f1461010b578063e0ff5b8b14610158578063e6904cad146101b5578063f851a440146101f4578063ffee7c9714610249575b600080fd5b341561009357600080fd5b6100bf600480803573ffffffffffffffffffffffffffffffffffffffff16906020019091905050610272565b6040518082815260200191505060405180910390f35b610109600480803560001916906020019091908035600019169060200190919080356000191690602001909190505061028a565b005b341561011657600080fd5b610142600480803573ffffffffffffffffffffffffffffffffffffffff1690602001909190505061057b565b6040518082815260200191505060405180910390f35b341561016357600080fd5b6101796004808035906020019091905050610593565b60405180846000191660001916815260200183600019166000191681526020018260001916600019168152602001935050505060405180910390f35b6101f26004808035906020019091908035600019169060200190919080356000191690602001909190803560001916906020019091905050610712565b005b34156101ff57600080fd5b6102076109a3565b604051808273ffffffffffffffffffffffffffffffffffffffff1673ffffffffffffffffffffffffffffffffffffffff16815260200191505060405180910390f35b341561025457600080fd5b61025c6109c8565b6040518082815260200191505060405180910390f35b60016020528060005260406000206000915090505481565b600083600019161415151561029e57600080fd5b60008260001916141515156102b257600080fd5b60008160001916141515156102c657600080fd5b60208060ff1611806102db575060208060ff16115b806102e9575060208060ff16115b156102f357610576565b66038d7ea4c68000341015151561030957600080fd5b6000809054906101000a900473ffffffffffffffffffffffffffffffffffffffff1673ffffffffffffffffffffffffffffffffffffffff166108fc349081150290604051600060405180830381858888f19350505050151561036a57600080fd5b6001600360003373ffffffffffffffffffffffffffffffffffffffff1673ffffffffffffffffffffffffffffffffffffffff16815260200190815260200160002060008282540192505081905550600260003373ffffffffffffffffffffffffffffffffffffffff1673ffffffffffffffffffffffffffffffffffffffff168152602001908152602001600020600001805480600101828161040c9190610a0f565b916000526020600020900160008590919091509060001916905550600260003373ffffffffffffffffffffffffffffffffffffffff1673ffffffffffffffffffffffffffffffffffffffff168152602001908152602001600020600101805480600101828161047b9190610a0f565b916000526020600020900160008490919091509060001916905550600260003373ffffffffffffffffffffffffffffffffffffffff1673ffffffffffffffffffffffffffffffffffffffff16815260200190815260200160002060020180548060010182816104ea9190610a0f565b9160005260206000209001600083909190915090600019169055507f85632e7eb1d8c810df8dd8788467303e9ce000f017f76ecb8da81a4df7ed5f09336001604051808373ffffffffffffffffffffffffffffffffffffffff1673ffffffffffffffffffffffffffffffffffffffff168152602001821515151581526020019250505060405180910390a15b505050565b60036020528060005260406000206000915090505481565b60008060008084101515156105a757600080fd5b600360003373ffffffffffffffffffffffffffffffffffffffff1673ffffffffffffffffffffffffffffffffffffffff16815260200190815260200160002054841015156105f457600080fd5b600260003373ffffffffffffffffffffffffffffffffffffffff1673ffffffffffffffffffffffffffffffffffffffff1681526020019081526020016000206000018481548110151561064357fe5b906000526020600020900154600260003373ffffffffffffffffffffffffffffffffffffffff1673ffffffffffffffffffffffffffffffffffffffff1681526020019081526020016000206001018581548110151561069e57fe5b906000526020600020900154600260003373ffffffffffffffffffffffffffffffffffffffff1673ffffffffffffffffffffffffffffffffffffffff168152602001908152602001600020600201868154811015156106f957fe5b9060005260206000209001549250925092509193909250565b60208060ff161180610727575060208060ff16115b80610735575060208060ff16115b1561073f5761099d565b600360003373ffffffffffffffffffffffffffffffffffffffff1673ffffffffffffffffffffffffffffffffffffffff168152602001908152602001600020548410151561078c5761099d565b66038d7ea4c6800034101515156107a257600080fd5b6000809054906101000a900473ffffffffffffffffffffffffffffffffffffffff1673ffffffffffffffffffffffffffffffffffffffff166108fc349081150290604051600060405180830381858888f19350505050151561080357600080fd5b82600260003373ffffffffffffffffffffffffffffffffffffffff1673ffffffffffffffffffffffffffffffffffffffff1681526020019081526020016000206000018581548110151561085357fe5b9060005260206000209001816000191690555081600260003373ffffffffffffffffffffffffffffffffffffffff1673ffffffffffffffffffffffffffffffffffffffff168152602001908152602001600020600101858154811015156108b657fe5b9060005260206000209001816000191690555080600260003373ffffffffffffffffffffffffffffffffffffffff1673ffffffffffffffffffffffffffffffffffffffff1681526020019081526020016000206002018581548110151561091957fe5b906000526020600020900181600019169055507f85632e7eb1d8c810df8dd8788467303e9ce000f017f76ecb8da81a4df7ed5f09336001604051808373ffffffffffffffffffffffffffffffffffffffff1673ffffffffffffffffffffffffffffffffffffffff168152602001821515151581526020019250505060405180910390a15b50505050565b6000809054906101000a900473ffffffffffffffffffffffffffffffffffffffff1681565b6000600360003373ffffffffffffffffffffffffffffffffffffffff1673ffffffffffffffffffffffffffffffffffffffff16815260200190815260200160002054905090565b815481835581811511610a3657818360005260206000209182019101610a359190610a3b565b5b505050565b610a5d91905b80821115610a59576000816000905550600101610a41565b5090565b905600a165627a7a72305820901201e18327b619cb15e7a629d943b9a37d05ac7d27582b8ac9f87ab864b0690029",
  "source": "pragma solidity ^0.4.17;\r\n\r\ncontract Pass {\r\n    address public admin; /// 管理员\r\n    mapping (address => uint) public earnings;  /// 合约收益\r\n    function Pass() public {\r\n        admin = msg.sender;\r\n    }\r\n\r\n    struct PasswordBook{\r\n        bytes32 [] platforms;         /// 平台\r\n        bytes32 [] accounts;         /// 密码描述列表\r\n        bytes32 [] passwords;       /// 密码列表\r\n    }\r\n\r\n    mapping (address => PasswordBook) private userbook;   /// 用户地址 映射密码本\r\n    mapping (address => uint) public registerUsers;     /// 拥有密码本的用户地址\r\n\r\n    event BookUpdated(address _sender, bool _success);\r\n\r\n    /// 增加密码\r\n    function addPassword(bytes32 platform, bytes32 account, bytes32 password)  public payable{\r\n        require(platform != \"\");\r\n        require(account != \"\");\r\n        require(password !=\"\");\r\n        if(platform.length >32 || account.length >32 || password.length >32) return;\r\n        require(msg.value >= 10**15);\r\n        admin.transfer(msg.value);\r\n        registerUsers[msg.sender] += 1;\r\n        userbook[msg.sender].platforms.push(platform);\r\n        userbook[msg.sender].accounts.push(account);\r\n        userbook[msg.sender].passwords.push(password);\r\n        BookUpdated(msg.sender, true);\r\n    }\r\n\r\n    /// 获取自己的密码本长度\r\n    function getBookLength() public view returns (uint){\r\n        return registerUsers[msg.sender];\r\n    }\r\n\r\n    /// 获取自己的密码\r\n    function getBook(uint _index) public view returns (bytes32, bytes32, bytes32){\r\n        require(_index>=0);\r\n        require(_index < registerUsers[msg.sender]);\r\n        return (userbook[msg.sender].platforms[_index], userbook[msg.sender].accounts[_index], userbook[msg.sender].passwords[_index]);\r\n    }\r\n\r\n    /// 修改密码\r\n    function updatePassword(uint _index, bytes32 platform, bytes32 account, bytes32 password) public payable {\r\n        if(platform.length >32 || account.length >32 || password.length >32) return;\r\n        if(_index >= registerUsers[msg.sender]) return;\r\n        require(msg.value >= 10**15);\r\n        admin.transfer(msg.value);\r\n        userbook[msg.sender].platforms[_index] = platform;\r\n        userbook[msg.sender].accounts[_index] = account;\r\n        userbook[msg.sender].passwords[_index] = password;\r\n        BookUpdated(msg.sender, true);\r\n    }\r\n}\r\n",
  "sourcePath": "/mnt/f/learn_ether/passwordbook/contracts/Pass.sol",
  "compiler": {
    "name": "solc",
    "version": "0.4.19+commit.c4cbbb05.Emscripten.clang"
  },
  "schemaVersion": "1.0.1",
  "updatedAt": "2018-03-05T02:38:58.142Z"
}